{
  "_format": "hh-sol-artifact-1",
  "contractName": "DappVotes",
  "sourceName": "contracts/DappVotes.sol",
  "abi": [
    {
      "anonymous": false,
      "inputs": [
        {
          "indexed": true,
          "internalType": "address",
          "name": "voter",
          "type": "address"
        },
        {
          "indexed": false,
          "internalType": "uint256",
          "name": "timestamp",
          "type": "uint256"
        }
      ],
      "name": "Voted",
      "type": "event"
    },
    {
      "inputs": [
        {
          "internalType": "uint256",
          "name": "id",
          "type": "uint256"
        },
        {
          "internalType": "string",
          "name": "name",
          "type": "string"
        },
        {
          "internalType": "string",
          "name": "image",
          "type": "string"
        }
      ],
      "name": "contest",
      "outputs": [],
      "stateMutability": "nonpayable",
      "type": "function"
    },
    {
      "inputs": [
        {
          "internalType": "string",
          "name": "image",
          "type": "string"
        },
        {
          "internalType": "string",
          "name": "title",
          "type": "string"
        },
        {
          "internalType": "string",
          "name": "description",
          "type": "string"
        },
        {
          "internalType": "uint256",
          "name": "startsAt",
          "type": "uint256"
        },
        {
          "internalType": "uint256",
          "name": "endsAt",
          "type": "uint256"
        }
      ],
      "name": "createPoll",
      "outputs": [],
      "stateMutability": "nonpayable",
      "type": "function"
    },
    {
      "inputs": [
        {
          "internalType": "uint256",
          "name": "id",
          "type": "uint256"
        }
      ],
      "name": "deletePoll",
      "outputs": [],
      "stateMutability": "nonpayable",
      "type": "function"
    },
    {
      "inputs": [
        {
          "internalType": "uint256",
          "name": "id",
          "type": "uint256"
        },
        {
          "internalType": "uint256",
          "name": "cid",
          "type": "uint256"
        }
      ],
      "name": "getContestant",
      "outputs": [
        {
          "components": [
            {
              "internalType": "uint256",
              "name": "id",
              "type": "uint256"
            },
            {
              "internalType": "string",
              "name": "image",
              "type": "string"
            },
            {
              "internalType": "string",
              "name": "name",
              "type": "string"
            },
            {
              "internalType": "address",
              "name": "voter",
              "type": "address"
            },
            {
              "internalType": "uint256",
              "name": "votes",
              "type": "uint256"
            },
            {
              "internalType": "address[]",
              "name": "voters",
              "type": "address[]"
            }
          ],
          "internalType": "struct DappVotes.ContestantStruct",
          "name": "",
          "type": "tuple"
        }
      ],
      "stateMutability": "view",
      "type": "function"
    },
    {
      "inputs": [
        {
          "internalType": "uint256",
          "name": "id",
          "type": "uint256"
        }
      ],
      "name": "getContestants",
      "outputs": [
        {
          "components": [
            {
              "internalType": "uint256",
              "name": "id",
              "type": "uint256"
            },
            {
              "internalType": "string",
              "name": "image",
              "type": "string"
            },
            {
              "internalType": "string",
              "name": "name",
              "type": "string"
            },
            {
              "internalType": "address",
              "name": "voter",
              "type": "address"
            },
            {
              "internalType": "uint256",
              "name": "votes",
              "type": "uint256"
            },
            {
              "internalType": "address[]",
              "name": "voters",
              "type": "address[]"
            }
          ],
          "internalType": "struct DappVotes.ContestantStruct[]",
          "name": "Contestants",
          "type": "tuple[]"
        }
      ],
      "stateMutability": "view",
      "type": "function"
    },
    {
      "inputs": [
        {
          "internalType": "uint256",
          "name": "id",
          "type": "uint256"
        }
      ],
      "name": "getPoll",
      "outputs": [
        {
          "components": [
            {
              "internalType": "uint256",
              "name": "id",
              "type": "uint256"
            },
            {
              "internalType": "string",
              "name": "image",
              "type": "string"
            },
            {
              "internalType": "string",
              "name": "title",
              "type": "string"
            },
            {
              "internalType": "string",
              "name": "description",
              "type": "string"
            },
            {
              "internalType": "uint256",
              "name": "votes",
              "type": "uint256"
            },
            {
              "internalType": "uint256",
              "name": "contestants",
              "type": "uint256"
            },
            {
              "internalType": "bool",
              "name": "deleted",
              "type": "bool"
            },
            {
              "internalType": "address",
              "name": "director",
              "type": "address"
            },
            {
              "internalType": "uint256",
              "name": "startsAt",
              "type": "uint256"
            },
            {
              "internalType": "uint256",
              "name": "endsAt",
              "type": "uint256"
            },
            {
              "internalType": "uint256",
              "name": "timestamp",
              "type": "uint256"
            },
            {
              "internalType": "address[]",
              "name": "voters",
              "type": "address[]"
            },
            {
              "internalType": "string[]",
              "name": "avatars",
              "type": "string[]"
            }
          ],
          "internalType": "struct DappVotes.PollStruct",
          "name": "",
          "type": "tuple"
        }
      ],
      "stateMutability": "view",
      "type": "function"
    },
    {
      "inputs": [],
      "name": "getPolls",
      "outputs": [
        {
          "components": [
            {
              "internalType": "uint256",
              "name": "id",
              "type": "uint256"
            },
            {
              "internalType": "string",
              "name": "image",
              "type": "string"
            },
            {
              "internalType": "string",
              "name": "title",
              "type": "string"
            },
            {
              "internalType": "string",
              "name": "description",
              "type": "string"
            },
            {
              "internalType": "uint256",
              "name": "votes",
              "type": "uint256"
            },
            {
              "internalType": "uint256",
              "name": "contestants",
              "type": "uint256"
            },
            {
              "internalType": "bool",
              "name": "deleted",
              "type": "bool"
            },
            {
              "internalType": "address",
              "name": "director",
              "type": "address"
            },
            {
              "internalType": "uint256",
              "name": "startsAt",
              "type": "uint256"
            },
            {
              "internalType": "uint256",
              "name": "endsAt",
              "type": "uint256"
            },
            {
              "internalType": "uint256",
              "name": "timestamp",
              "type": "uint256"
            },
            {
              "internalType": "address[]",
              "name": "voters",
              "type": "address[]"
            },
            {
              "internalType": "string[]",
              "name": "avatars",
              "type": "string[]"
            }
          ],
          "internalType": "struct DappVotes.PollStruct[]",
          "name": "Polls",
          "type": "tuple[]"
        }
      ],
      "stateMutability": "view",
      "type": "function"
    },
    {
      "inputs": [
        {
          "internalType": "uint256",
          "name": "",
          "type": "uint256"
        }
      ],
      "name": "pollExists",
      "outputs": [
        {
          "internalType": "bool",
          "name": "",
          "type": "bool"
        }
      ],
      "stateMutability": "view",
      "type": "function"
    },
    {
      "inputs": [
        {
          "internalType": "uint256",
          "name": "",
          "type": "uint256"
        }
      ],
      "name": "polls",
      "outputs": [
        {
          "internalType": "uint256",
          "name": "id",
          "type": "uint256"
        },
        {
          "internalType": "string",
          "name": "image",
          "type": "string"
        },
        {
          "internalType": "string",
          "name": "title",
          "type": "string"
        },
        {
          "internalType": "string",
          "name": "description",
          "type": "string"
        },
        {
          "internalType": "uint256",
          "name": "votes",
          "type": "uint256"
        },
        {
          "internalType": "uint256",
          "name": "contestants",
          "type": "uint256"
        },
        {
          "internalType": "bool",
          "name": "deleted",
          "type": "bool"
        },
        {
          "internalType": "address",
          "name": "director",
          "type": "address"
        },
        {
          "internalType": "uint256",
          "name": "startsAt",
          "type": "uint256"
        },
        {
          "internalType": "uint256",
          "name": "endsAt",
          "type": "uint256"
        },
        {
          "internalType": "uint256",
          "name": "timestamp",
          "type": "uint256"
        }
      ],
      "stateMutability": "view",
      "type": "function"
    },
    {
      "inputs": [
        {
          "internalType": "uint256",
          "name": "id",
          "type": "uint256"
        },
        {
          "internalType": "string",
          "name": "image",
          "type": "string"
        },
        {
          "internalType": "string",
          "name": "title",
          "type": "string"
        },
        {
          "internalType": "string",
          "name": "description",
          "type": "string"
        },
        {
          "internalType": "uint256",
          "name": "startsAt",
          "type": "uint256"
        },
        {
          "internalType": "uint256",
          "name": "endsAt",
          "type": "uint256"
        }
      ],
      "name": "updatePoll",
      "outputs": [],
      "stateMutability": "nonpayable",
      "type": "function"
    },
    {
      "inputs": [
        {
          "internalType": "uint256",
          "name": "id",
          "type": "uint256"
        },
        {
          "internalType": "uint256",
          "name": "cid",
          "type": "uint256"
        }
      ],
      "name": "vote",
      "outputs": [],
      "stateMutability": "nonpayable",
      "type": "function"
    }
  ],
  "bytecode": "0x608060405234801561001057600080fd5b506127b9806100206000396000f3fe608060405234801561001057600080fd5b50600436106100a95760003560e01c806388d21ff31161007157806388d21ff314610127578063ac2f00741461015a578063b384abef14610184578063cee9dc4514610197578063d3436411146101b7578063f0d0bc45146101d757600080fd5b8063029433f0146100ae578063120fe89b146100c35780631a8cbcaa146100e15780631f35b51d1461010157806366dd51dc14610114575b600080fd5b6100c16100bc366004611f42565b6101ea565b005b6100cb61046c565b6040516100d891906121c1565b60405180910390f35b6100f46100ef366004612223565b6108e7565b6040516100d8919061223c565b6100c161010f366004612223565b610c69565b6100c1610122366004612256565b610d5e565b61014a610135366004612223565b60026020526000908152604090205460ff1681565b60405190151581526020016100d8565b61016d610168366004612223565b61100d565b6040516100d89b9a999897969594939291906122c3565b6100c161019236600461234b565b611209565b6101aa6101a5366004612223565b611513565b6040516100d891906123e4565b6101ca6101c536600461234b565b611817565b6040516100d89190612439565b6100c16101e536600461244c565b611a12565b60008681526002602052604090205460ff166102215760405162461bcd60e51b8152600401610218906124e6565b60405180910390fd5b60008681526003602052604090206006015461010090046001600160a01b0316331461025f5760405162461bcd60e51b815260040161021890612513565b60008451116102a45760405162461bcd60e51b8152602060048201526011602482015270151a5d1b19481a5cc81c995c5d5a5c9959607a1b6044820152606401610218565b60008351116102ef5760405162461bcd60e51b815260206004820152601760248201527611195cd8dc9a5c1d1a5bdb881a5cc81c995c5d5a5c9959604a1b6044820152606401610218565b60008551116103105760405162461bcd60e51b815260040161021890612558565b60008681526003602052604090206006015460ff161561036a5760405162461bcd60e51b8152602060048201526015602482015274141bdb1b081a185cc81899595b8819195b195d1959605a1b6044820152606401610218565b6000868152600360205260409020600401546001116103d55760405162461bcd60e51b815260206004820152602160248201527f506f6c6c2068617320766f7465732c2063616e6e6f74206265207570646174656044820152601960fa1b6064820152608401610218565b8181116103f45760405162461bcd60e51b815260040161021890612583565b600086815260036020526040902060020161040f8582612654565b5060008681526003602081905260409091200161042c8482612654565b5060008681526003602052604090206001016104488682612654565b50600095865260036020526040909520600781019190915560080193909355505050565b6060600060015b60005481116104b55760008181526003602052604090206006015460ff166104a3578161049f8161272a565b9250505b806104ad8161272a565b915050610473565b508067ffffffffffffffff8111156104cf576104cf611e9f565b60405190808252806020026020018201604052801561050857816020015b6104f5611cc7565b8152602001906001900390816104ed5790505b509150600060015b60005481116108e15760008181526003602052604090206006015460ff166108cf5760036000828152602001908152602001600020604051806101a00160405290816000820154815260200160018201805461056b906125cb565b80601f0160208091040260200160405190810160405280929190818152602001828054610597906125cb565b80156105e45780601f106105b9576101008083540402835291602001916105e4565b820191906000526020600020905b8154815290600101906020018083116105c757829003601f168201915b505050505081526020016002820180546105fd906125cb565b80601f0160208091040260200160405190810160405280929190818152602001828054610629906125cb565b80156106765780601f1061064b57610100808354040283529160200191610676565b820191906000526020600020905b81548152906001019060200180831161065957829003601f168201915b5050505050815260200160038201805461068f906125cb565b80601f01602080910402602001604051908101604052809291908181526020018280546106bb906125cb565b80156107085780601f106106dd57610100808354040283529160200191610708565b820191906000526020600020905b8154815290600101906020018083116106eb57829003601f168201915b505050918352505060048201546020808301919091526005830154604080840191909152600684015460ff8116151560608501526001600160a01b0361010091829004166080850152600785015460a0850152600885015460c0850152600985015460e0850152600a85018054835181860281018601909452808452919094019391928301828280156107c457602002820191906000526020600020905b81546001600160a01b031681526001909101906020018083116107a6575b50505050508152602001600b8201805480602002602001604051908101604052809291908181526020016000905b8282101561089e578382906000526020600020018054610811906125cb565b80601f016020809104026020016040519081016040528092919081815260200182805461083d906125cb565b801561088a5780601f1061085f5761010080835404028352916020019161088a565b820191906000526020600020905b81548152906001019060200180831161086d57829003601f168201915b5050505050815260200190600101906107f2565b505050915250859050836108b18161272a565b9450815181106108c3576108c3612743565b60200260200101819052505b806108d98161272a565b915050610510565b50505090565b6108ef611cc7565b60036000838152602001908152602001600020604051806101a001604052908160008201548152602001600182018054610928906125cb565b80601f0160208091040260200160405190810160405280929190818152602001828054610954906125cb565b80156109a15780601f10610976576101008083540402835291602001916109a1565b820191906000526020600020905b81548152906001019060200180831161098457829003601f168201915b505050505081526020016002820180546109ba906125cb565b80601f01602080910402602001604051908101604052809291908181526020018280546109e6906125cb565b8015610a335780601f10610a0857610100808354040283529160200191610a33565b820191906000526020600020905b815481529060010190602001808311610a1657829003601f168201915b50505050508152602001600382018054610a4c906125cb565b80601f0160208091040260200160405190810160405280929190818152602001828054610a78906125cb565b8015610ac55780601f10610a9a57610100808354040283529160200191610ac5565b820191906000526020600020905b815481529060010190602001808311610aa857829003601f168201915b505050918352505060048201546020808301919091526005830154604080840191909152600684015460ff8116151560608501526001600160a01b0361010091829004166080850152600785015460a0850152600885015460c0850152600985015460e0850152600a8501805483518186028101860190945280845291909401939192830182828015610b8157602002820191906000526020600020905b81546001600160a01b03168152600190910190602001808311610b63575b50505050508152602001600b8201805480602002602001604051908101604052809291908181526020016000905b82821015610c5b578382906000526020600020018054610bce906125cb565b80601f0160208091040260200160405190810160405280929190818152602001828054610bfa906125cb565b8015610c475780601f10610c1c57610100808354040283529160200191610c47565b820191906000526020600020905b815481529060010190602001808311610c2a57829003601f168201915b505050505081526020019060010190610baf565b505050915250909392505050565b60008181526002602052604090205460ff16610c975760405162461bcd60e51b8152600401610218906124e6565b60008181526003602052604090206006015461010090046001600160a01b03163314610cd55760405162461bcd60e51b815260040161021890612513565b600081815260036020526040902060040154600111610d405760405162461bcd60e51b815260206004820152602160248201527f506f6c6c2068617320766f7465732c2063616e6e6f742062652064656c6574656044820152601960fa1b6064820152608401610218565b6000908152600360205260409020600601805460ff19166001179055565b60008381526002602052604090205460ff16610d8c5760405162461bcd60e51b8152600401610218906124e6565b6000825111610dd05760405162461bcd60e51b815260206004820152601060248201526f13985b59481a5cc81c995c5d5a5c995960821b6044820152606401610218565b6000815111610df15760405162461bcd60e51b815260040161021890612558565b600083815260036020526040902060040154600111610e5e5760405162461bcd60e51b815260206004820152602360248201527f506f6c6c2068617320766f7465732c2063616e6e6f7420626520636f6e7465736044820152621d195960ea1b6064820152608401610218565b600083815260056020908152604080832033845290915290205460ff1615610ed85760405162461bcd60e51b815260206004820152602760248201527f596f75206861766520616c726561647920636f6e74657374656420696e2074686044820152661a5cc81c1bdb1b60ca1b6064820152608401610218565b610ee6600180546001019055565b610eee611d3a565b6040818101849052602080830184815233606085015260018054855260008881526006845284812086518252909352929091208351815590518392820190610f369082612654565b5060408201516002820190610f4b9082612654565b5060608201516003820180546001600160a01b0319166001600160a01b039092169190911790556080820151600482015560a08201518051610f97916005840191602090910190611d79565b50505060008481526005602090815260408083203384528252808320805460ff1916600190811790915587845260038352908320600b01805491820181558352912001610fe48382612654565b5060008481526003602052604081206005018054916110028361272a565b919050555050505050565b6003602052600090815260409020805460018201805491929161102f906125cb565b80601f016020809104026020016040519081016040528092919081815260200182805461105b906125cb565b80156110a85780601f1061107d576101008083540402835291602001916110a8565b820191906000526020600020905b81548152906001019060200180831161108b57829003601f168201915b5050505050908060020180546110bd906125cb565b80601f01602080910402602001604051908101604052809291908181526020018280546110e9906125cb565b80156111365780601f1061110b57610100808354040283529160200191611136565b820191906000526020600020905b81548152906001019060200180831161111957829003601f168201915b50505050509080600301805461114b906125cb565b80601f0160208091040260200160405190810160405280929190818152602001828054611177906125cb565b80156111c45780601f10611199576101008083540402835291602001916111c4565b820191906000526020600020905b8154815290600101906020018083116111a757829003601f168201915b50505050600483015460058401546006850154600786015460088701546009909701549596939592945060ff8216936101009092046001600160a01b0316929091908b565b60008281526002602052604090205460ff166112375760405162461bcd60e51b8152600401610218906124e6565b600082815260046020908152604080832033845290915290205460ff16156112ad5760405162461bcd60e51b815260206004820152602360248201527f596f75206861766520616c726561647920766f74656420696e207468697320706044820152621bdb1b60ea1b6064820152608401610218565b60008281526003602052604090206006015460ff16156113075760405162461bcd60e51b8152602060048201526015602482015274141bdb1b081a185cc81899595b8819195b195d1959605a1b6044820152606401610218565b6000828152600360205260409020600501546001106113685760405162461bcd60e51b815260206004820152601e60248201527f4e6f7420656e6f75676820636f6e74657374616e747320746f20766f746500006044820152606401610218565b600082815260036020526040902060070154611382611ca8565b1180156113a657506000828152600360205260409020600801546113a4611ca8565b105b6113fd5760405162461bcd60e51b815260206004820152602260248201527f566f74696e67206973206e6f7420616c6c6f77656420617420746869732074696044820152616d6560f01b6064820152608401610218565b600082815260036020526040812060040180549161141a8361272a565b90915550506000828152600360209081526040808320600a0180546001810182559084528284200180546001600160a01b031916331790558483526006825280832084845290915281206004018054916114738361272a565b9091555050600082815260066020908152604080832084845282528083206005018054600181810183559185528385200180546001600160a01b03191633908117909155868552600484528285208186529093529220805460ff19169092179091557f4d99b957a2bc29a30ebd96a7be8e68fe50a3c701db28a91436490b7d53870ca46114fe611ca8565b60405190815260200160405180910390a25050565b6060600060015b6001548111611564576000848152600660209081526040808320848452909152902054819003611552578161154e8161272a565b9250505b8061155c8161272a565b91505061151a565b508067ffffffffffffffff81111561157e5761157e611e9f565b6040519080825280602002602001820160405280156115b757816020015b6115a4611d3a565b81526020019060019003908161159c5790505b509150600060015b600154811161180f5760008581526006602090815260408083208484529091529020548190036117fd576000858152600660209081526040808320848452825291829020825160c08101909352805483526001810180549192840191611624906125cb565b80601f0160208091040260200160405190810160405280929190818152602001828054611650906125cb565b801561169d5780601f106116725761010080835404028352916020019161169d565b820191906000526020600020905b81548152906001019060200180831161168057829003601f168201915b505050505081526020016002820180546116b6906125cb565b80601f01602080910402602001604051908101604052809291908181526020018280546116e2906125cb565b801561172f5780601f106117045761010080835404028352916020019161172f565b820191906000526020600020905b81548152906001019060200180831161171257829003601f168201915b505050505081526020016003820160009054906101000a90046001600160a01b03166001600160a01b03166001600160a01b0316815260200160048201548152602001600582018054806020026020016040519081016040528092919081815260200182805480156117ca57602002820191906000526020600020905b81546001600160a01b031681526001909101906020018083116117ac575b5050505050815250508483806117df9061272a565b9450815181106117f1576117f1612743565b60200260200101819052505b806118078161272a565b9150506115bf565b505050919050565b61181f611d3a565b6000838152600660209081526040808320858452825291829020825160c0810190935280548352600181018054919284019161185a906125cb565b80601f0160208091040260200160405190810160405280929190818152602001828054611886906125cb565b80156118d35780601f106118a8576101008083540402835291602001916118d3565b820191906000526020600020905b8154815290600101906020018083116118b657829003601f168201915b505050505081526020016002820180546118ec906125cb565b80601f0160208091040260200160405190810160405280929190818152602001828054611918906125cb565b80156119655780601f1061193a57610100808354040283529160200191611965565b820191906000526020600020905b81548152906001019060200180831161194857829003601f168201915b505050505081526020016003820160009054906101000a90046001600160a01b03166001600160a01b03166001600160a01b031681526020016004820154815260200160058201805480602002602001604051908101604052809291908181526020018280548015611a0057602002820191906000526020600020905b81546001600160a01b031681526001909101906020018083116119e2575b50505050508152505090505b92915050565b6000845111611a575760405162461bcd60e51b8152602060048201526011602482015270151a5d1b19481a5cc81c995c5d5a5c9959607a1b6044820152606401610218565b6000835111611aa25760405162461bcd60e51b815260206004820152601760248201527611195cd8dc9a5c1d1a5bdb881a5cc81c995c5d5a5c9959604a1b6044820152606401610218565b6000855111611ac35760405162461bcd60e51b815260040161021890612558565b60008211611b0c5760405162461bcd60e51b815260206004820152601660248201527514dd185c9d0819185d19481a5cc81c995c5d5a5c995960521b6044820152606401610218565b818111611b2b5760405162461bcd60e51b815260040161021890612583565b611b39600080546001019055565b611b41611cc7565b6000548152604081018590526060810184905260208101869052610100810183905261012081018290523360e0820152611b79611ca8565b6101408201528051600090815260036020908152604090912082518155908201518291906001820190611bac9082612654565b5060408201516002820190611bc19082612654565b5060608201516003820190611bd69082612654565b506080820151600482015560a0820151600582015560c082015160068201805460e08501516001600160a81b0319909116921515610100600160a81b031916929092176101006001600160a01b0390931683021790558201516007820155610120820151600882015561014082015160098201556101608201518051611c6691600a840191602090910190611d79565b506101808201518051611c8391600b840191602090910190611dde565b505090516000908152600260205260409020805460ff19166001179055505050505050565b6000611cb6426103e8612759565b611cc2906103e8612770565b905090565b604051806101a0016040528060008152602001606081526020016060815260200160608152602001600081526020016000815260200160001515815260200160006001600160a01b0316815260200160008152602001600081526020016000815260200160608152602001606081525090565b6040518060c0016040528060008152602001606081526020016060815260200160006001600160a01b0316815260200160008152602001606081525090565b828054828255906000526020600020908101928215611dce579160200282015b82811115611dce57825182546001600160a01b0319166001600160a01b03909116178255602090920191600190910190611d99565b50611dda929150611e30565b5090565b828054828255906000526020600020908101928215611e24579160200282015b82811115611e245782518290611e149082612654565b5091602001919060010190611dfe565b50611dda929150611e45565b5b80821115611dda5760008155600101611e31565b80821115611dda576000611e598282611e62565b50600101611e45565b508054611e6e906125cb565b6000825580601f10611e7e575050565b601f016020900490600052602060002090810190611e9c9190611e30565b50565b634e487b7160e01b600052604160045260246000fd5b600082601f830112611ec657600080fd5b813567ffffffffffffffff80821115611ee157611ee1611e9f565b604051601f8301601f19908116603f01168101908282118183101715611f0957611f09611e9f565b81604052838152866020858801011115611f2257600080fd5b836020870160208301376000602085830101528094505050505092915050565b60008060008060008060c08789031215611f5b57600080fd5b86359550602087013567ffffffffffffffff80821115611f7a57600080fd5b611f868a838b01611eb5565b96506040890135915080821115611f9c57600080fd5b611fa88a838b01611eb5565b95506060890135915080821115611fbe57600080fd5b50611fcb89828a01611eb5565b9350506080870135915060a087013590509295509295509295565b6000815180845260005b8181101561200c57602081850181015186830182015201611ff0565b506000602082860101526020601f19601f83011685010191505092915050565b600081518084526020808501945080840160005b838110156120655781516001600160a01b031687529582019590820190600101612040565b509495945050505050565b600082825180855260208086019550808260051b84010181860160005b848110156120bb57601f198684030189526120a9838351611fe6565b9884019892509083019060010161208d565b5090979650505050505050565b60006101a08251845260208301518160208601526120e882860182611fe6565b915050604083015184820360408601526121028282611fe6565b9150506060830151848203606086015261211c8282611fe6565b9150506080830151608085015260a083015160a085015260c083015161214660c086018215159052565b5060e083015161216160e08601826001600160a01b03169052565b50610100838101519085015261012080840151908501526101408084015190850152610160808401518583038287015261219b838261202c565b9250505061018080840151858303828701526121b78382612070565b9695505050505050565b6000602080830181845280855180835260408601915060408160051b870101925083870160005b8281101561221657603f198886030184526122048583516120c8565b945092850192908501906001016121e8565b5092979650505050505050565b60006020828403121561223557600080fd5b5035919050565b60208152600061224f60208301846120c8565b9392505050565b60008060006060848603121561226b57600080fd5b83359250602084013567ffffffffffffffff8082111561228a57600080fd5b61229687838801611eb5565b935060408601359150808211156122ac57600080fd5b506122b986828701611eb5565b9150509250925092565b60006101608d83528060208401526122dd8184018e611fe6565b905082810360408401526122f1818d611fe6565b90508281036060840152612305818c611fe6565b608084019a909a52505060a081019690965293151560c08601526001600160a01b039290921660e085015261010084015261012083015261014090910152949350505050565b6000806040838503121561235e57600080fd5b50508035926020909101359150565b805182526000602082015160c0602085015261238c60c0850182611fe6565b9050604083015184820360408601526123a58282611fe6565b91505060018060a01b0360608401511660608501526080830151608085015260a083015184820360a08601526123db828261202c565b95945050505050565b6000602080830181845280855180835260408601915060408160051b870101925083870160005b8281101561221657603f1988860301845261242785835161236d565b9450928501929085019060010161240b565b60208152600061224f602083018461236d565b600080600080600060a0868803121561246457600080fd5b853567ffffffffffffffff8082111561247c57600080fd5b61248889838a01611eb5565b9650602088013591508082111561249e57600080fd5b6124aa89838a01611eb5565b955060408801359150808211156124c057600080fd5b506124cd88828901611eb5565b9598949750949560608101359550608001359392505050565b602080825260139082015272141bdb1b08191bd95cc81b9bdd08195e1a5cdd606a1b604082015260600190565b60208082526025908201527f596f7520617265206e6f7420746865206469726563746f72206f662074686973604082015264081c1bdb1b60da1b606082015260800190565b602080825260119082015270125b5859d9481a5cc81c995c5d5a5c9959607a1b604082015260600190565b60208082526028908201527f456e642064617465206d7573742062652067726561746572207468616e207374604082015267617274206461746560c01b606082015260800190565b600181811c908216806125df57607f821691505b6020821081036125ff57634e487b7160e01b600052602260045260246000fd5b50919050565b601f82111561264f57600081815260208120601f850160051c8101602086101561262c5750805b601f850160051c820191505b8181101561264b57828155600101612638565b5050505b505050565b815167ffffffffffffffff81111561266e5761266e611e9f565b6126828161267c84546125cb565b84612605565b602080601f8311600181146126b7576000841561269f5750858301515b600019600386901b1c1916600185901b17855561264b565b600085815260208120601f198616915b828110156126e6578886015182559484019460019091019084016126c7565b50858210156127045787850151600019600388901b60f8161c191681555b5050505050600190811b01905550565b634e487b7160e01b600052601160045260246000fd5b60006001820161273c5761273c612714565b5060010190565b634e487b7160e01b600052603260045260246000fd5b8082028115828204841417611a0c57611a0c612714565b80820180821115611a0c57611a0c61271456fea2646970667358221220a8caa0f95ae388785868e4279e1f2f862a10e77861ee2266b24d754b2b72e76864736f6c63430008110033",
  "linkReferences": {},
  "deployedLinkReferences": {}
}