{
  "_format": "hh-sol-artifact-1",
  "contractName": "DappVotes",
  "sourceName": "contracts/DappVotes.sol",
  "abi": [
    {
      "anonymous": false,
      "inputs": [
        {
          "indexed": true,
          "internalType": "address",
          "name": "voter",
          "type": "address"
        },
        {
          "indexed": false,
          "internalType": "uint256",
          "name": "timestamp",
          "type": "uint256"
        }
      ],
      "name": "Voted",
      "type": "event"
    },
    {
      "inputs": [
        {
          "internalType": "uint256",
          "name": "id",
          "type": "uint256"
        },
        {
          "internalType": "string",
          "name": "name",
          "type": "string"
        },
        {
          "internalType": "string",
          "name": "image",
          "type": "string"
        },
        {
          "internalType": "string",
          "name": "party",
          "type": "string"
        },
        {
          "internalType": "string",
          "name": "nationalId",
          "type": "string"
        },
        {
          "internalType": "string",
          "name": "bio",
          "type": "string"
        }
      ],
      "name": "contest",
      "outputs": [],
      "stateMutability": "nonpayable",
      "type": "function"
    },
    {
      "inputs": [
        {
          "internalType": "string",
          "name": "image",
          "type": "string"
        },
        {
          "internalType": "string",
          "name": "title",
          "type": "string"
        },
        {
          "internalType": "string",
          "name": "description",
          "type": "string"
        },
        {
          "internalType": "uint256",
          "name": "startsAt",
          "type": "uint256"
        },
        {
          "internalType": "uint256",
          "name": "endsAt",
          "type": "uint256"
        }
      ],
      "name": "createPoll",
      "outputs": [],
      "stateMutability": "nonpayable",
      "type": "function"
    },
    {
      "inputs": [
        {
          "internalType": "uint256",
          "name": "id",
          "type": "uint256"
        }
      ],
      "name": "deletePoll",
      "outputs": [],
      "stateMutability": "nonpayable",
      "type": "function"
    },
    {
      "inputs": [
        {
          "internalType": "uint256",
          "name": "id",
          "type": "uint256"
        },
        {
          "internalType": "uint256",
          "name": "cid",
          "type": "uint256"
        }
      ],
      "name": "getContestant",
      "outputs": [
        {
          "components": [
            {
              "internalType": "uint256",
              "name": "id",
              "type": "uint256"
            },
            {
              "internalType": "string",
              "name": "image",
              "type": "string"
            },
            {
              "internalType": "string",
              "name": "name",
              "type": "string"
            },
            {
              "internalType": "string",
              "name": "party",
              "type": "string"
            },
            {
              "internalType": "string",
              "name": "nationalId",
              "type": "string"
            },
            {
              "internalType": "string",
              "name": "bio",
              "type": "string"
            },
            {
              "internalType": "address",
              "name": "voter",
              "type": "address"
            },
            {
              "internalType": "uint256",
              "name": "votes",
              "type": "uint256"
            },
            {
              "internalType": "address[]",
              "name": "voters",
              "type": "address[]"
            }
          ],
          "internalType": "struct DappVotes.ContestantStruct",
          "name": "",
          "type": "tuple"
        }
      ],
      "stateMutability": "view",
      "type": "function"
    },
    {
      "inputs": [
        {
          "internalType": "uint256",
          "name": "id",
          "type": "uint256"
        }
      ],
      "name": "getContestants",
      "outputs": [
        {
          "components": [
            {
              "internalType": "uint256",
              "name": "id",
              "type": "uint256"
            },
            {
              "internalType": "string",
              "name": "image",
              "type": "string"
            },
            {
              "internalType": "string",
              "name": "name",
              "type": "string"
            },
            {
              "internalType": "string",
              "name": "party",
              "type": "string"
            },
            {
              "internalType": "string",
              "name": "nationalId",
              "type": "string"
            },
            {
              "internalType": "string",
              "name": "bio",
              "type": "string"
            },
            {
              "internalType": "address",
              "name": "voter",
              "type": "address"
            },
            {
              "internalType": "uint256",
              "name": "votes",
              "type": "uint256"
            },
            {
              "internalType": "address[]",
              "name": "voters",
              "type": "address[]"
            }
          ],
          "internalType": "struct DappVotes.ContestantStruct[]",
          "name": "Contestants",
          "type": "tuple[]"
        }
      ],
      "stateMutability": "view",
      "type": "function"
    },
    {
      "inputs": [
        {
          "internalType": "uint256",
          "name": "id",
          "type": "uint256"
        }
      ],
      "name": "getPoll",
      "outputs": [
        {
          "components": [
            {
              "internalType": "uint256",
              "name": "id",
              "type": "uint256"
            },
            {
              "internalType": "string",
              "name": "image",
              "type": "string"
            },
            {
              "internalType": "string",
              "name": "title",
              "type": "string"
            },
            {
              "internalType": "string",
              "name": "description",
              "type": "string"
            },
            {
              "internalType": "uint256",
              "name": "votes",
              "type": "uint256"
            },
            {
              "internalType": "uint256",
              "name": "contestants",
              "type": "uint256"
            },
            {
              "internalType": "bool",
              "name": "deleted",
              "type": "bool"
            },
            {
              "internalType": "address",
              "name": "director",
              "type": "address"
            },
            {
              "internalType": "uint256",
              "name": "startsAt",
              "type": "uint256"
            },
            {
              "internalType": "uint256",
              "name": "endsAt",
              "type": "uint256"
            },
            {
              "internalType": "uint256",
              "name": "timestamp",
              "type": "uint256"
            },
            {
              "internalType": "address[]",
              "name": "voters",
              "type": "address[]"
            },
            {
              "internalType": "string[]",
              "name": "avatars",
              "type": "string[]"
            }
          ],
          "internalType": "struct DappVotes.PollStruct",
          "name": "",
          "type": "tuple"
        }
      ],
      "stateMutability": "view",
      "type": "function"
    },
    {
      "inputs": [],
      "name": "getPolls",
      "outputs": [
        {
          "components": [
            {
              "internalType": "uint256",
              "name": "id",
              "type": "uint256"
            },
            {
              "internalType": "string",
              "name": "image",
              "type": "string"
            },
            {
              "internalType": "string",
              "name": "title",
              "type": "string"
            },
            {
              "internalType": "string",
              "name": "description",
              "type": "string"
            },
            {
              "internalType": "uint256",
              "name": "votes",
              "type": "uint256"
            },
            {
              "internalType": "uint256",
              "name": "contestants",
              "type": "uint256"
            },
            {
              "internalType": "bool",
              "name": "deleted",
              "type": "bool"
            },
            {
              "internalType": "address",
              "name": "director",
              "type": "address"
            },
            {
              "internalType": "uint256",
              "name": "startsAt",
              "type": "uint256"
            },
            {
              "internalType": "uint256",
              "name": "endsAt",
              "type": "uint256"
            },
            {
              "internalType": "uint256",
              "name": "timestamp",
              "type": "uint256"
            },
            {
              "internalType": "address[]",
              "name": "voters",
              "type": "address[]"
            },
            {
              "internalType": "string[]",
              "name": "avatars",
              "type": "string[]"
            }
          ],
          "internalType": "struct DappVotes.PollStruct[]",
          "name": "Polls",
          "type": "tuple[]"
        }
      ],
      "stateMutability": "view",
      "type": "function"
    },
    {
      "inputs": [
        {
          "internalType": "uint256",
          "name": "",
          "type": "uint256"
        }
      ],
      "name": "pollExists",
      "outputs": [
        {
          "internalType": "bool",
          "name": "",
          "type": "bool"
        }
      ],
      "stateMutability": "view",
      "type": "function"
    },
    {
      "inputs": [
        {
          "internalType": "uint256",
          "name": "",
          "type": "uint256"
        }
      ],
      "name": "polls",
      "outputs": [
        {
          "internalType": "uint256",
          "name": "id",
          "type": "uint256"
        },
        {
          "internalType": "string",
          "name": "image",
          "type": "string"
        },
        {
          "internalType": "string",
          "name": "title",
          "type": "string"
        },
        {
          "internalType": "string",
          "name": "description",
          "type": "string"
        },
        {
          "internalType": "uint256",
          "name": "votes",
          "type": "uint256"
        },
        {
          "internalType": "uint256",
          "name": "contestants",
          "type": "uint256"
        },
        {
          "internalType": "bool",
          "name": "deleted",
          "type": "bool"
        },
        {
          "internalType": "address",
          "name": "director",
          "type": "address"
        },
        {
          "internalType": "uint256",
          "name": "startsAt",
          "type": "uint256"
        },
        {
          "internalType": "uint256",
          "name": "endsAt",
          "type": "uint256"
        },
        {
          "internalType": "uint256",
          "name": "timestamp",
          "type": "uint256"
        }
      ],
      "stateMutability": "view",
      "type": "function"
    },
    {
      "inputs": [
        {
          "internalType": "uint256",
          "name": "id",
          "type": "uint256"
        },
        {
          "internalType": "string",
          "name": "image",
          "type": "string"
        },
        {
          "internalType": "string",
          "name": "title",
          "type": "string"
        },
        {
          "internalType": "string",
          "name": "description",
          "type": "string"
        },
        {
          "internalType": "uint256",
          "name": "startsAt",
          "type": "uint256"
        },
        {
          "internalType": "uint256",
          "name": "endsAt",
          "type": "uint256"
        }
      ],
      "name": "updatePoll",
      "outputs": [],
      "stateMutability": "nonpayable",
      "type": "function"
    },
    {
      "inputs": [
        {
          "internalType": "uint256",
          "name": "id",
          "type": "uint256"
        },
        {
          "internalType": "uint256",
          "name": "cid",
          "type": "uint256"
        }
      ],
      "name": "vote",
      "outputs": [],
      "stateMutability": "nonpayable",
      "type": "function"
    }
  ],
  "bytecode": "0x608060405234801561001057600080fd5b50612cb2806100206000396000f3fe608060405234801561001057600080fd5b50600436106100a95760003560e01c8063972ba52611610071578063972ba52614610147578063ac2f00741461015a578063b384abef14610184578063cee9dc4514610197578063d3436411146101b7578063f0d0bc45146101d757600080fd5b8063029433f0146100ae578063120fe89b146100c35780631a8cbcaa146100e15780631f35b51d1461010157806388d21ff314610114575b600080fd5b6100c16100bc36600461237d565b6101ea565b005b6100cb61046c565b6040516100d891906125fc565b60405180910390f35b6100f46100ef36600461265e565b6108e7565b6040516100d89190612677565b6100c161010f36600461265e565b610c69565b61013761012236600461265e565b60026020526000908152604090205460ff1681565b60405190151581526020016100d8565b6100c1610155366004612691565b610d5e565b61016d61016836600461265e565b6110c4565b6040516100d89b9a9998979695949392919061276b565b6100c16101923660046127f3565b6112c0565b6101aa6101a536600461265e565b6115ca565b6040516100d891906128dd565b6101ca6101c53660046127f3565b611a85565b6040516100d89190612932565b6100c16101e5366004612945565b611e37565b60008681526002602052604090205460ff166102215760405162461bcd60e51b8152600401610218906129df565b60405180910390fd5b60008681526003602052604090206006015461010090046001600160a01b0316331461025f5760405162461bcd60e51b815260040161021890612a0c565b60008451116102a45760405162461bcd60e51b8152602060048201526011602482015270151a5d1b19481a5cc81c995c5d5a5c9959607a1b6044820152606401610218565b60008351116102ef5760405162461bcd60e51b815260206004820152601760248201527611195cd8dc9a5c1d1a5bdb881a5cc81c995c5d5a5c9959604a1b6044820152606401610218565b60008551116103105760405162461bcd60e51b815260040161021890612a51565b60008681526003602052604090206006015460ff161561036a5760405162461bcd60e51b8152602060048201526015602482015274141bdb1b081a185cc81899595b8819195b195d1959605a1b6044820152606401610218565b6000868152600360205260409020600401546001116103d55760405162461bcd60e51b815260206004820152602160248201527f506f6c6c2068617320766f7465732c2063616e6e6f74206265207570646174656044820152601960fa1b6064820152608401610218565b8181116103f45760405162461bcd60e51b815260040161021890612a7c565b600086815260036020526040902060020161040f8582612b4d565b5060008681526003602081905260409091200161042c8482612b4d565b5060008681526003602052604090206001016104488682612b4d565b50600095865260036020526040909520600781019190915560080193909355505050565b6060600060015b60005481116104b55760008181526003602052604090206006015460ff166104a3578161049f81612c23565b9250505b806104ad81612c23565b915050610473565b508067ffffffffffffffff8111156104cf576104cf6122da565b60405190808252806020026020018201604052801561050857816020015b6104f56120ec565b8152602001906001900390816104ed5790505b509150600060015b60005481116108e15760008181526003602052604090206006015460ff166108cf5760036000828152602001908152602001600020604051806101a00160405290816000820154815260200160018201805461056b90612ac4565b80601f016020809104026020016040519081016040528092919081815260200182805461059790612ac4565b80156105e45780601f106105b9576101008083540402835291602001916105e4565b820191906000526020600020905b8154815290600101906020018083116105c757829003601f168201915b505050505081526020016002820180546105fd90612ac4565b80601f016020809104026020016040519081016040528092919081815260200182805461062990612ac4565b80156106765780601f1061064b57610100808354040283529160200191610676565b820191906000526020600020905b81548152906001019060200180831161065957829003601f168201915b5050505050815260200160038201805461068f90612ac4565b80601f01602080910402602001604051908101604052809291908181526020018280546106bb90612ac4565b80156107085780601f106106dd57610100808354040283529160200191610708565b820191906000526020600020905b8154815290600101906020018083116106eb57829003601f168201915b505050918352505060048201546020808301919091526005830154604080840191909152600684015460ff8116151560608501526001600160a01b0361010091829004166080850152600785015460a0850152600885015460c0850152600985015460e0850152600a85018054835181860281018601909452808452919094019391928301828280156107c457602002820191906000526020600020905b81546001600160a01b031681526001909101906020018083116107a6575b50505050508152602001600b8201805480602002602001604051908101604052809291908181526020016000905b8282101561089e57838290600052602060002001805461081190612ac4565b80601f016020809104026020016040519081016040528092919081815260200182805461083d90612ac4565b801561088a5780601f1061085f5761010080835404028352916020019161088a565b820191906000526020600020905b81548152906001019060200180831161086d57829003601f168201915b5050505050815260200190600101906107f2565b505050915250859050836108b181612c23565b9450815181106108c3576108c3612c3c565b60200260200101819052505b806108d981612c23565b915050610510565b50505090565b6108ef6120ec565b60036000838152602001908152602001600020604051806101a00160405290816000820154815260200160018201805461092890612ac4565b80601f016020809104026020016040519081016040528092919081815260200182805461095490612ac4565b80156109a15780601f10610976576101008083540402835291602001916109a1565b820191906000526020600020905b81548152906001019060200180831161098457829003601f168201915b505050505081526020016002820180546109ba90612ac4565b80601f01602080910402602001604051908101604052809291908181526020018280546109e690612ac4565b8015610a335780601f10610a0857610100808354040283529160200191610a33565b820191906000526020600020905b815481529060010190602001808311610a1657829003601f168201915b50505050508152602001600382018054610a4c90612ac4565b80601f0160208091040260200160405190810160405280929190818152602001828054610a7890612ac4565b8015610ac55780601f10610a9a57610100808354040283529160200191610ac5565b820191906000526020600020905b815481529060010190602001808311610aa857829003601f168201915b505050918352505060048201546020808301919091526005830154604080840191909152600684015460ff8116151560608501526001600160a01b0361010091829004166080850152600785015460a0850152600885015460c0850152600985015460e0850152600a8501805483518186028101860190945280845291909401939192830182828015610b8157602002820191906000526020600020905b81546001600160a01b03168152600190910190602001808311610b63575b50505050508152602001600b8201805480602002602001604051908101604052809291908181526020016000905b82821015610c5b578382906000526020600020018054610bce90612ac4565b80601f0160208091040260200160405190810160405280929190818152602001828054610bfa90612ac4565b8015610c475780601f10610c1c57610100808354040283529160200191610c47565b820191906000526020600020905b815481529060010190602001808311610c2a57829003601f168201915b505050505081526020019060010190610baf565b505050915250909392505050565b60008181526002602052604090205460ff16610c975760405162461bcd60e51b8152600401610218906129df565b60008181526003602052604090206006015461010090046001600160a01b03163314610cd55760405162461bcd60e51b815260040161021890612a0c565b600081815260036020526040902060040154600111610d405760405162461bcd60e51b815260206004820152602160248201527f506f6c6c2068617320766f7465732c2063616e6e6f742062652064656c6574656044820152601960fa1b6064820152608401610218565b6000908152600360205260409020600601805460ff19166001179055565b60008681526002602052604090205460ff16610d8c5760405162461bcd60e51b8152600401610218906129df565b6000855111610dd05760405162461bcd60e51b815260206004820152601060248201526f13985b59481a5cc81c995c5d5a5c995960821b6044820152606401610218565b6000845111610df15760405162461bcd60e51b815260040161021890612a51565b6000835111610e365760405162461bcd60e51b815260206004820152601160248201527014185c9d1e481a5cc81c995c5d5a5c9959607a1b6044820152606401610218565b6000825111610e875760405162461bcd60e51b815260206004820152601760248201527f4e6174696f6e616c2049442069732072657175697265640000000000000000006044820152606401610218565b6000815111610eca5760405162461bcd60e51b815260206004820152600f60248201526e109a5bc81a5cc81c995c5d5a5c9959608a1b6044820152606401610218565b600086815260036020526040902060040154600111610f375760405162461bcd60e51b815260206004820152602360248201527f506f6c6c2068617320766f7465732c2063616e6e6f7420626520636f6e7465736044820152621d195960ea1b6064820152608401610218565b610f45600180546001019055565b610f4d61215f565b60408181018790526020808301878152606084018790526080840186905260a084018590523360c085015260018054855260008b81526006845284812086518252909352929091208351815590518392820190610faa9082612b4d565b5060408201516002820190610fbf9082612b4d565b5060608201516003820190610fd49082612b4d565b5060808201516004820190610fe99082612b4d565b5060a08201516005820190610ffe9082612b4d565b5060c08201516006820180546001600160a01b0319166001600160a01b0390921691909117905560e08201516007820155610100820151805161104b9160088401916020909101906121b4565b50505060008781526005602090815260408083203384528252808320805460ff191660019081179091558a845260038352908320600b018054918201815583529120016110988682612b4d565b5060008781526003602052604081206005018054916110b683612c23565b919050555050505050505050565b600360205260009081526040902080546001820180549192916110e690612ac4565b80601f016020809104026020016040519081016040528092919081815260200182805461111290612ac4565b801561115f5780601f106111345761010080835404028352916020019161115f565b820191906000526020600020905b81548152906001019060200180831161114257829003601f168201915b50505050509080600201805461117490612ac4565b80601f01602080910402602001604051908101604052809291908181526020018280546111a090612ac4565b80156111ed5780601f106111c2576101008083540402835291602001916111ed565b820191906000526020600020905b8154815290600101906020018083116111d057829003601f168201915b50505050509080600301805461120290612ac4565b80601f016020809104026020016040519081016040528092919081815260200182805461122e90612ac4565b801561127b5780601f106112505761010080835404028352916020019161127b565b820191906000526020600020905b81548152906001019060200180831161125e57829003601f168201915b50505050600483015460058401546006850154600786015460088701546009909701549596939592945060ff8216936101009092046001600160a01b0316929091908b565b60008281526002602052604090205460ff166112ee5760405162461bcd60e51b8152600401610218906129df565b600082815260046020908152604080832033845290915290205460ff16156113645760405162461bcd60e51b815260206004820152602360248201527f596f75206861766520616c726561647920766f74656420696e207468697320706044820152621bdb1b60ea1b6064820152608401610218565b60008281526003602052604090206006015460ff16156113be5760405162461bcd60e51b8152602060048201526015602482015274141bdb1b081a185cc81899595b8819195b195d1959605a1b6044820152606401610218565b60008281526003602052604090206005015460011061141f5760405162461bcd60e51b815260206004820152601e60248201527f4e6f7420656e6f75676820636f6e74657374616e747320746f20766f746500006044820152606401610218565b6000828152600360205260409020600701546114396120cd565b11801561145d575060008281526003602052604090206008015461145b6120cd565b105b6114b45760405162461bcd60e51b815260206004820152602260248201527f566f74696e67206973206e6f7420616c6c6f77656420617420746869732074696044820152616d6560f01b6064820152608401610218565b60008281526003602052604081206004018054916114d183612c23565b90915550506000828152600360209081526040808320600a0180546001810182559084528284200180546001600160a01b0319163317905584835260068252808320848452909152812060070180549161152a83612c23565b9091555050600082815260066020908152604080832084845282528083206008018054600181810183559185528385200180546001600160a01b03191633908117909155868552600484528285208186529093529220805460ff19169092179091557f4d99b957a2bc29a30ebd96a7be8e68fe50a3c701db28a91436490b7d53870ca46115b56120cd565b60405190815260200160405180910390a25050565b6060600060015b600154811161161b576000848152600660209081526040808320848452909152902054819003611609578161160581612c23565b9250505b8061161381612c23565b9150506115d1565b508067ffffffffffffffff811115611635576116356122da565b60405190808252806020026020018201604052801561166e57816020015b61165b61215f565b8152602001906001900390816116535790505b509150600060015b6001548111611a7d576000858152600660209081526040808320848452909152902054819003611a6b576000858152600660209081526040808320848452825291829020825161012081019093528054835260018101805491928401916116dc90612ac4565b80601f016020809104026020016040519081016040528092919081815260200182805461170890612ac4565b80156117555780601f1061172a57610100808354040283529160200191611755565b820191906000526020600020905b81548152906001019060200180831161173857829003601f168201915b5050505050815260200160028201805461176e90612ac4565b80601f016020809104026020016040519081016040528092919081815260200182805461179a90612ac4565b80156117e75780601f106117bc576101008083540402835291602001916117e7565b820191906000526020600020905b8154815290600101906020018083116117ca57829003601f168201915b5050505050815260200160038201805461180090612ac4565b80601f016020809104026020016040519081016040528092919081815260200182805461182c90612ac4565b80156118795780601f1061184e57610100808354040283529160200191611879565b820191906000526020600020905b81548152906001019060200180831161185c57829003601f168201915b5050505050815260200160048201805461189290612ac4565b80601f01602080910402602001604051908101604052809291908181526020018280546118be90612ac4565b801561190b5780601f106118e05761010080835404028352916020019161190b565b820191906000526020600020905b8154815290600101906020018083116118ee57829003601f168201915b5050505050815260200160058201805461192490612ac4565b80601f016020809104026020016040519081016040528092919081815260200182805461195090612ac4565b801561199d5780601f106119725761010080835404028352916020019161199d565b820191906000526020600020905b81548152906001019060200180831161198057829003601f168201915b505050505081526020016006820160009054906101000a90046001600160a01b03166001600160a01b03166001600160a01b031681526020016007820154815260200160088201805480602002602001604051908101604052809291908181526020018280548015611a3857602002820191906000526020600020905b81546001600160a01b03168152600190910190602001808311611a1a575b505050505081525050848380611a4d90612c23565b945081518110611a5f57611a5f612c3c565b60200260200101819052505b80611a7581612c23565b915050611676565b505050919050565b611a8d61215f565b600083815260066020908152604080832085845282529182902082516101208101909352805483526001810180549192840191611ac990612ac4565b80601f0160208091040260200160405190810160405280929190818152602001828054611af590612ac4565b8015611b425780601f10611b1757610100808354040283529160200191611b42565b820191906000526020600020905b815481529060010190602001808311611b2557829003601f168201915b50505050508152602001600282018054611b5b90612ac4565b80601f0160208091040260200160405190810160405280929190818152602001828054611b8790612ac4565b8015611bd45780601f10611ba957610100808354040283529160200191611bd4565b820191906000526020600020905b815481529060010190602001808311611bb757829003601f168201915b50505050508152602001600382018054611bed90612ac4565b80601f0160208091040260200160405190810160405280929190818152602001828054611c1990612ac4565b8015611c665780601f10611c3b57610100808354040283529160200191611c66565b820191906000526020600020905b815481529060010190602001808311611c4957829003601f168201915b50505050508152602001600482018054611c7f90612ac4565b80601f0160208091040260200160405190810160405280929190818152602001828054611cab90612ac4565b8015611cf85780601f10611ccd57610100808354040283529160200191611cf8565b820191906000526020600020905b815481529060010190602001808311611cdb57829003601f168201915b50505050508152602001600582018054611d1190612ac4565b80601f0160208091040260200160405190810160405280929190818152602001828054611d3d90612ac4565b8015611d8a5780601f10611d5f57610100808354040283529160200191611d8a565b820191906000526020600020905b815481529060010190602001808311611d6d57829003601f168201915b505050505081526020016006820160009054906101000a90046001600160a01b03166001600160a01b03166001600160a01b031681526020016007820154815260200160088201805480602002602001604051908101604052809291908181526020018280548015611e2557602002820191906000526020600020905b81546001600160a01b03168152600190910190602001808311611e07575b50505050508152505090505b92915050565b6000845111611e7c5760405162461bcd60e51b8152602060048201526011602482015270151a5d1b19481a5cc81c995c5d5a5c9959607a1b6044820152606401610218565b6000835111611ec75760405162461bcd60e51b815260206004820152601760248201527611195cd8dc9a5c1d1a5bdb881a5cc81c995c5d5a5c9959604a1b6044820152606401610218565b6000855111611ee85760405162461bcd60e51b815260040161021890612a51565b60008211611f315760405162461bcd60e51b815260206004820152601660248201527514dd185c9d0819185d19481a5cc81c995c5d5a5c995960521b6044820152606401610218565b818111611f505760405162461bcd60e51b815260040161021890612a7c565b611f5e600080546001019055565b611f666120ec565b6000548152604081018590526060810184905260208101869052610100810183905261012081018290523360e0820152611f9e6120cd565b6101408201528051600090815260036020908152604090912082518155908201518291906001820190611fd19082612b4d565b5060408201516002820190611fe69082612b4d565b5060608201516003820190611ffb9082612b4d565b506080820151600482015560a0820151600582015560c082015160068201805460e08501516001600160a81b0319909116921515610100600160a81b031916929092176101006001600160a01b039093168302179055820151600782015561012082015160088201556101408201516009820155610160820151805161208b91600a8401916020909101906121b4565b5061018082015180516120a891600b840191602090910190612219565b505090516000908152600260205260409020805460ff19166001179055505050505050565b60006120db426103e8612c52565b6120e7906103e8612c69565b905090565b604051806101a0016040528060008152602001606081526020016060815260200160608152602001600081526020016000815260200160001515815260200160006001600160a01b0316815260200160008152602001600081526020016000815260200160608152602001606081525090565b60405180610120016040528060008152602001606081526020016060815260200160608152602001606081526020016060815260200160006001600160a01b0316815260200160008152602001606081525090565b828054828255906000526020600020908101928215612209579160200282015b8281111561220957825182546001600160a01b0319166001600160a01b039091161782556020909201916001909101906121d4565b5061221592915061226b565b5090565b82805482825590600052602060002090810192821561225f579160200282015b8281111561225f578251829061224f9082612b4d565b5091602001919060010190612239565b50612215929150612280565b5b80821115612215576000815560010161226c565b80821115612215576000612294828261229d565b50600101612280565b5080546122a990612ac4565b6000825580601f106122b9575050565b601f0160209004906000526020600020908101906122d7919061226b565b50565b634e487b7160e01b600052604160045260246000fd5b600082601f83011261230157600080fd5b813567ffffffffffffffff8082111561231c5761231c6122da565b604051601f8301601f19908116603f01168101908282118183101715612344576123446122da565b8160405283815286602085880101111561235d57600080fd5b836020870160208301376000602085830101528094505050505092915050565b60008060008060008060c0878903121561239657600080fd5b86359550602087013567ffffffffffffffff808211156123b557600080fd5b6123c18a838b016122f0565b965060408901359150808211156123d757600080fd5b6123e38a838b016122f0565b955060608901359150808211156123f957600080fd5b5061240689828a016122f0565b9350506080870135915060a087013590509295509295509295565b6000815180845260005b818110156124475760208185018101518683018201520161242b565b506000602082860101526020601f19601f83011685010191505092915050565b600081518084526020808501945080840160005b838110156124a05781516001600160a01b03168752958201959082019060010161247b565b509495945050505050565b600082825180855260208086019550808260051b84010181860160005b848110156124f657601f198684030189526124e4838351612421565b988401989250908301906001016124c8565b5090979650505050505050565b60006101a082518452602083015181602086015261252382860182612421565b9150506040830151848203604086015261253d8282612421565b915050606083015184820360608601526125578282612421565b9150506080830151608085015260a083015160a085015260c083015161258160c086018215159052565b5060e083015161259c60e08601826001600160a01b03169052565b5061010083810151908501526101208084015190850152610140808401519085015261016080840151858303828701526125d68382612467565b9250505061018080840151858303828701526125f283826124ab565b9695505050505050565b6000602080830181845280855180835260408601915060408160051b870101925083870160005b8281101561265157603f1988860301845261263f858351612503565b94509285019290850190600101612623565b5092979650505050505050565b60006020828403121561267057600080fd5b5035919050565b60208152600061268a6020830184612503565b9392505050565b60008060008060008060c087890312156126aa57600080fd5b86359550602087013567ffffffffffffffff808211156126c957600080fd5b6126d58a838b016122f0565b965060408901359150808211156126eb57600080fd5b6126f78a838b016122f0565b9550606089013591508082111561270d57600080fd5b6127198a838b016122f0565b9450608089013591508082111561272f57600080fd5b61273b8a838b016122f0565b935060a089013591508082111561275157600080fd5b5061275e89828a016122f0565b9150509295509295509295565b60006101608d83528060208401526127858184018e612421565b90508281036040840152612799818d612421565b905082810360608401526127ad818c612421565b608084019a909a52505060a081019690965293151560c08601526001600160a01b039290921660e085015261010084015261012083015261014090910152949350505050565b6000806040838503121561280657600080fd5b50508035926020909101359150565b600061012082518452602083015181602086015261283582860182612421565b9150506040830151848203604086015261284f8282612421565b915050606083015184820360608601526128698282612421565b915050608083015184820360808601526128838282612421565b91505060a083015184820360a086015261289d8282612421565b91505060c08301516128ba60c08601826001600160a01b03169052565b5060e083015160e085015261010080840151858303828701526125f28382612467565b6000602080830181845280855180835260408601915060408160051b870101925083870160005b8281101561265157603f19888603018452612920858351612815565b94509285019290850190600101612904565b60208152600061268a6020830184612815565b600080600080600060a0868803121561295d57600080fd5b853567ffffffffffffffff8082111561297557600080fd5b61298189838a016122f0565b9650602088013591508082111561299757600080fd5b6129a389838a016122f0565b955060408801359150808211156129b957600080fd5b506129c6888289016122f0565b9598949750949560608101359550608001359392505050565b602080825260139082015272141bdb1b08191bd95cc81b9bdd08195e1a5cdd606a1b604082015260600190565b60208082526025908201527f596f7520617265206e6f7420746865206469726563746f72206f662074686973604082015264081c1bdb1b60da1b606082015260800190565b602080825260119082015270125b5859d9481a5cc81c995c5d5a5c9959607a1b604082015260600190565b60208082526028908201527f456e642064617465206d7573742062652067726561746572207468616e207374604082015267617274206461746560c01b606082015260800190565b600181811c90821680612ad857607f821691505b602082108103612af857634e487b7160e01b600052602260045260246000fd5b50919050565b601f821115612b4857600081815260208120601f850160051c81016020861015612b255750805b601f850160051c820191505b81811015612b4457828155600101612b31565b5050505b505050565b815167ffffffffffffffff811115612b6757612b676122da565b612b7b81612b758454612ac4565b84612afe565b602080601f831160018114612bb05760008415612b985750858301515b600019600386901b1c1916600185901b178555612b44565b600085815260208120601f198616915b82811015612bdf57888601518255948401946001909101908401612bc0565b5085821015612bfd5787850151600019600388901b60f8161c191681555b5050505050600190811b01905550565b634e487b7160e01b600052601160045260246000fd5b600060018201612c3557612c35612c0d565b5060010190565b634e487b7160e01b600052603260045260246000fd5b8082028115828204841417611e3157611e31612c0d565b80820180821115611e3157611e31612c0d56fea2646970667358221220280c4e850048a0910f8d04f5fb6db5d1054e7c6396fe04235d26466834a5280264736f6c63430008110033",
  "linkReferences": {},
  "deployedLinkReferences": {}
}