{
  "_format": "hh-sol-artifact-1",
  "contractName": "VoteStorage",
  "sourceName": "contracts/DappVotes.sol",
  "abi": [
    {
      "anonymous": false,
      "inputs": [
        {
          "indexed": false,
          "internalType": "string",
          "name": "pollingManagerId",
          "type": "string"
        },
        {
          "indexed": false,
          "internalType": "string[]",
          "name": "candidateIds",
          "type": "string[]"
        },
        {
          "indexed": false,
          "internalType": "uint256",
          "name": "priority",
          "type": "uint256"
        },
        {
          "indexed": false,
          "internalType": "uint256[]",
          "name": "counts",
          "type": "uint256[]"
        }
      ],
      "name": "VotesStored",
      "type": "event"
    },
    {
      "inputs": [
        {
          "internalType": "uint256",
          "name": "",
          "type": "uint256"
        }
      ],
      "name": "candidateList",
      "outputs": [
        {
          "internalType": "string",
          "name": "",
          "type": "string"
        }
      ],
      "stateMutability": "view",
      "type": "function"
    },
    {
      "inputs": [],
      "name": "getAllVoteCounts",
      "outputs": [
        {
          "internalType": "string[]",
          "name": "",
          "type": "string[]"
        },
        {
          "internalType": "uint256[]",
          "name": "",
          "type": "uint256[]"
        },
        {
          "internalType": "uint256[]",
          "name": "",
          "type": "uint256[]"
        },
        {
          "internalType": "uint256[]",
          "name": "",
          "type": "uint256[]"
        }
      ],
      "stateMutability": "view",
      "type": "function"
    },
    {
      "inputs": [
        {
          "internalType": "string",
          "name": "candidateId",
          "type": "string"
        }
      ],
      "name": "getVoteCounts",
      "outputs": [
        {
          "internalType": "uint256",
          "name": "",
          "type": "uint256"
        },
        {
          "internalType": "uint256",
          "name": "",
          "type": "uint256"
        },
        {
          "internalType": "uint256",
          "name": "",
          "type": "uint256"
        }
      ],
      "stateMutability": "view",
      "type": "function"
    },
    {
      "inputs": [
        {
          "internalType": "string",
          "name": "pollingManagerId",
          "type": "string"
        },
        {
          "internalType": "string[]",
          "name": "candidateIds",
          "type": "string[]"
        },
        {
          "internalType": "uint256",
          "name": "priority",
          "type": "uint256"
        },
        {
          "internalType": "uint256[]",
          "name": "counts",
          "type": "uint256[]"
        }
      ],
      "name": "storeMultipleVoteCounts",
      "outputs": [],
      "stateMutability": "nonpayable",
      "type": "function"
    },
    {
      "inputs": [
        {
          "internalType": "string",
          "name": "",
          "type": "string"
        }
      ],
      "name": "voteCounts",
      "outputs": [
        {
          "internalType": "uint256",
          "name": "priority1",
          "type": "uint256"
        },
        {
          "internalType": "uint256",
          "name": "priority2",
          "type": "uint256"
        },
        {
          "internalType": "uint256",
          "name": "priority3",
          "type": "uint256"
        },
        {
          "internalType": "string",
          "name": "pollingManagerId",
          "type": "string"
        }
      ],
      "stateMutability": "view",
      "type": "function"
    }
  ],
  "bytecode": "0x608060405234801561001057600080fd5b506110d9806100206000396000f3fe608060405234801561001057600080fd5b50600436106100575760003560e01c80633dec43361461005c5780634205717d146100715780636d3a4ff71461009d578063b13c744b146100cb578063cd59f237146100eb575b600080fd5b61006f61006a366004610b68565b610103565b005b61008461007f366004610c69565b61043a565b6040516100949493929190610cf6565b60405180910390f35b6100b06100ab366004610c69565b6104f8565b60408051938452602084019290925290820152606001610094565b6100de6100d9366004610d25565b6105f3565b6040516100949190610d3e565b6100f361069f565b6040516100949493929190610deb565b80518351146101585760405162461bcd60e51b815260206004820152601860248201527f4d69736d61746368656420696e707574206c656e677468730000000000000000604482015260640160405180910390fd5b60005b83518110156103f657826001036101c45781818151811061017e5761017e610e43565b6020026020010151600085838151811061019a5761019a610e43565b60200260200101516040516101af9190610e59565b90815260405190819003602001902055610286565b82600203610227578181815181106101de576101de610e43565b602002602001015160008583815181106101fa576101fa610e43565b602002602001015160405161020f9190610e59565b90815260405190819003602001902060010155610286565b826003036102865781818151811061024157610241610e43565b6020026020010151600085838151811061025d5761025d610e43565b60200260200101516040516102729190610e59565b908152604051908190036020019020600201555b600084828151811061029a5761029a610e43565b60200260200101516040516102af9190610e59565b908152602001604051809103902060030180546102cb90610e75565b905060000361031d578460008583815181106102e9576102e9610e43565b60200260200101516040516102fe9190610e59565b9081526020016040518091039020600301908161031b9190610efe565b505b6000805b60015481101561039e5785838151811061033d5761033d610e43565b6020026020010151805190602001206001828154811061035f5761035f610e43565b906000526020600020016040516103769190611031565b60405180910390200361038c576001915061039e565b806103968161103d565b915050610321565b50806103e35760018583815181106103b8576103b8610e43565b602090810291909101810151825460018101845560009384529190922001906103e19082610efe565b505b50806103ee8161103d565b91505061015b565b507f92fe0a3365b9345f187506e514adae7c7eb2d4833638820f5ba62d46b28f87a08484848460405161042c9493929190611064565b60405180910390a150505050565b805160208183018101805160008252928201919093012091528054600182015460028301546003840180549394929391929161047590610e75565b80601f01602080910402602001604051908101604052809291908181526020018280546104a190610e75565b80156104ee5780601f106104c3576101008083540402835291602001916104ee565b820191906000526020600020905b8154815290600101906020018083116104d157829003601f168201915b5050505050905084565b60008060008060008560405161050e9190610e59565b908152602001604051809103902060405180608001604052908160008201548152602001600182015481526020016002820154815260200160038201805461055590610e75565b80601f016020809104026020016040519081016040528092919081815260200182805461058190610e75565b80156105ce5780601f106105a3576101008083540402835291602001916105ce565b820191906000526020600020905b8154815290600101906020018083116105b157829003601f168201915b5050509190925250508151602083015160409093015190989297509550909350505050565b6001818154811061060357600080fd5b90600052602060002001600091509050805461061e90610e75565b80601f016020809104026020016040519081016040528092919081815260200182805461064a90610e75565b80156106975780601f1061066c57610100808354040283529160200191610697565b820191906000526020600020905b81548152906001019060200180831161067a57829003601f168201915b505050505081565b60015460609081908190819060008167ffffffffffffffff8111156106c6576106c6610a22565b6040519080825280602002602001820160405280156106f957816020015b60608152602001906001900390816106e45790505b50905060008267ffffffffffffffff81111561071757610717610a22565b604051908082528060200260200182016040528015610740578160200160208202803683370190505b50905060008367ffffffffffffffff81111561075e5761075e610a22565b604051908082528060200260200182016040528015610787578160200160208202803683370190505b50905060008467ffffffffffffffff8111156107a5576107a5610a22565b6040519080825280602002602001820160405280156107ce578160200160208202803683370190505b50905060005b85811015610a1257600181815481106107ef576107ef610e43565b90600052602060002001805461080490610e75565b80601f016020809104026020016040519081016040528092919081815260200182805461083090610e75565b801561087d5780601f106108525761010080835404028352916020019161087d565b820191906000526020600020905b81548152906001019060200180831161086057829003601f168201915b505050505085828151811061089457610894610e43565b6020026020010181905250600080600183815481106108b5576108b5610e43565b906000526020600020016040516108cc9190611031565b908152602001604051809103902060405180608001604052908160008201548152602001600182015481526020016002820154815260200160038201805461091390610e75565b80601f016020809104026020016040519081016040528092919081815260200182805461093f90610e75565b801561098c5780601f106109615761010080835404028352916020019161098c565b820191906000526020600020905b81548152906001019060200180831161096f57829003601f168201915b505050505081525050905080600001518583815181106109ae576109ae610e43565b60200260200101818152505080602001518483815181106109d1576109d1610e43565b60200260200101818152505080604001518383815181106109f4576109f4610e43565b60209081029190910101525080610a0a8161103d565b9150506107d4565b5092989197509550909350915050565b634e487b7160e01b600052604160045260246000fd5b604051601f8201601f1916810167ffffffffffffffff81118282101715610a6157610a61610a22565b604052919050565b600082601f830112610a7a57600080fd5b813567ffffffffffffffff811115610a9457610a94610a22565b610aa7601f8201601f1916602001610a38565b818152846020838601011115610abc57600080fd5b816020850160208301376000918101602001919091529392505050565b600067ffffffffffffffff821115610af357610af3610a22565b5060051b60200190565b600082601f830112610b0e57600080fd5b81356020610b23610b1e83610ad9565b610a38565b82815260059290921b84018101918181019086841115610b4257600080fd5b8286015b84811015610b5d5780358352918301918301610b46565b509695505050505050565b60008060008060808587031215610b7e57600080fd5b843567ffffffffffffffff80821115610b9657600080fd5b610ba288838901610a69565b9550602091508187013581811115610bb957600080fd5b8701601f81018913610bca57600080fd5b8035610bd8610b1e82610ad9565b81815260059190911b8201840190848101908b831115610bf757600080fd5b8584015b83811015610c2f57803586811115610c135760008081fd5b610c218e8983890101610a69565b845250918601918601610bfb565b509750505050604087013593506060870135915080821115610c5057600080fd5b50610c5d87828801610afd565b91505092959194509250565b600060208284031215610c7b57600080fd5b813567ffffffffffffffff811115610c9257600080fd5b610c9e84828501610a69565b949350505050565b60005b83811015610cc1578181015183820152602001610ca9565b50506000910152565b60008151808452610ce2816020860160208601610ca6565b601f01601f19169290920160200192915050565b848152836020820152826040820152608060608201526000610d1b6080830184610cca565b9695505050505050565b600060208284031215610d3757600080fd5b5035919050565b602081526000610d516020830184610cca565b9392505050565b600082825180855260208086019550808260051b84010181860160005b84811015610da357601f19868403018952610d91838351610cca565b98840198925090830190600101610d75565b5090979650505050505050565b600081518084526020808501945080840160005b83811015610de057815187529582019590820190600101610dc4565b509495945050505050565b608081526000610dfe6080830187610d58565b8281036020840152610e108187610db0565b90508281036040840152610e248186610db0565b90508281036060840152610e388185610db0565b979650505050505050565b634e487b7160e01b600052603260045260246000fd5b60008251610e6b818460208701610ca6565b9190910192915050565b600181811c90821680610e8957607f821691505b602082108103610ea957634e487b7160e01b600052602260045260246000fd5b50919050565b601f821115610ef957600081815260208120601f850160051c81016020861015610ed65750805b601f850160051c820191505b81811015610ef557828155600101610ee2565b5050505b505050565b815167ffffffffffffffff811115610f1857610f18610a22565b610f2c81610f268454610e75565b84610eaf565b602080601f831160018114610f615760008415610f495750858301515b600019600386901b1c1916600185901b178555610ef5565b600085815260208120601f198616915b82811015610f9057888601518255948401946001909101908401610f71565b5085821015610fae5787850151600019600388901b60f8161c191681555b5050505050600190811b01905550565b60008154610fcb81610e75565b60018281168015610fe35760018114610ff857611027565b60ff1984168752821515830287019450611027565b8560005260208060002060005b8581101561101e5781548a820152908401908201611005565b50505082870194505b5050505092915050565b6000610d518284610fbe565b60006001820161105d57634e487b7160e01b600052601160045260246000fd5b5060010190565b6080815260006110776080830187610cca565b82810360208401526110898187610d58565b90508460408401528281036060840152610e388185610db056fea2646970667358221220a2cd7b05fd3607e60792b27a6b1ace4b8ae844c7cb380d7bb104ce6dfabf5e1764736f6c63430008110033",
  "linkReferences": {},
  "deployedLinkReferences": {}
}