{
  "_format": "hh-sol-artifact-1",
  "contractName": "VoteStorage",
  "sourceName": "contracts/DappVotes.sol",
  "abi": [
    {
      "anonymous": false,
      "inputs": [
        {
          "indexed": false,
          "internalType": "string[]",
          "name": "candidateIds",
          "type": "string[]"
        },
        {
          "indexed": false,
          "internalType": "uint256",
          "name": "priority",
          "type": "uint256"
        },
        {
          "indexed": false,
          "internalType": "uint256[]",
          "name": "counts",
          "type": "uint256[]"
        }
      ],
      "name": "VotesStored",
      "type": "event"
    },
    {
      "inputs": [
        {
          "internalType": "uint256",
          "name": "",
          "type": "uint256"
        }
      ],
      "name": "candidateList",
      "outputs": [
        {
          "internalType": "string",
          "name": "",
          "type": "string"
        }
      ],
      "stateMutability": "view",
      "type": "function"
    },
    {
      "inputs": [],
      "name": "getAllVoteCounts",
      "outputs": [
        {
          "internalType": "string[]",
          "name": "",
          "type": "string[]"
        },
        {
          "internalType": "uint256[]",
          "name": "",
          "type": "uint256[]"
        },
        {
          "internalType": "uint256[]",
          "name": "",
          "type": "uint256[]"
        },
        {
          "internalType": "uint256[]",
          "name": "",
          "type": "uint256[]"
        }
      ],
      "stateMutability": "view",
      "type": "function"
    },
    {
      "inputs": [
        {
          "internalType": "string",
          "name": "candidateId",
          "type": "string"
        }
      ],
      "name": "getVoteCounts",
      "outputs": [
        {
          "internalType": "uint256",
          "name": "",
          "type": "uint256"
        },
        {
          "internalType": "uint256",
          "name": "",
          "type": "uint256"
        },
        {
          "internalType": "uint256",
          "name": "",
          "type": "uint256"
        }
      ],
      "stateMutability": "view",
      "type": "function"
    },
    {
      "inputs": [
        {
          "internalType": "string[]",
          "name": "candidateIds",
          "type": "string[]"
        },
        {
          "internalType": "uint256",
          "name": "priority",
          "type": "uint256"
        },
        {
          "internalType": "uint256[]",
          "name": "counts",
          "type": "uint256[]"
        }
      ],
      "name": "storeMultipleVoteCounts",
      "outputs": [],
      "stateMutability": "nonpayable",
      "type": "function"
    },
    {
      "inputs": [
        {
          "internalType": "string",
          "name": "",
          "type": "string"
        }
      ],
      "name": "voteCounts",
      "outputs": [
        {
          "internalType": "uint256",
          "name": "priority1",
          "type": "uint256"
        },
        {
          "internalType": "uint256",
          "name": "priority2",
          "type": "uint256"
        },
        {
          "internalType": "uint256",
          "name": "priority3",
          "type": "uint256"
        }
      ],
      "stateMutability": "view",
      "type": "function"
    }
  ],
  "bytecode": "0x608060405234801561001057600080fd5b50610dfb806100206000396000f3fe608060405234801561001057600080fd5b50600436106100575760003560e01c80634205717d1461005c5780636d3a4ff7146100b6578063b13c744b146100c9578063bc3f0575146100e9578063cd59f237146100fe575b600080fd5b61009661006a36600461085e565b805160208183018101805160008252928201919093012091528054600182015460029092015490919083565b604080519384526020840192909252908201526060015b60405180910390f35b6100966100c436600461085e565b610116565b6100dc6100d736600461089b565b61016d565b6040516100ad9190610904565b6100fc6100f73660046109ad565b610219565b005b6101066104b6565b6040516100ad9493929190610b17565b60008060008060008560405161012c9190610b6f565b908152604080516020928190038301812060608201835280548083526001820154948301859052600290910154919092018190529097919650945092505050565b6001818154811061017d57600080fd5b90600052602060002001600091509050805461019890610b8b565b80601f01602080910402602001604051908101604052809291908181526020018280546101c490610b8b565b80156102115780601f106101e657610100808354040283529160200191610211565b820191906000526020600020905b8154815290600101906020018083116101f457829003601f168201915b505050505081565b805183511461026e5760405162461bcd60e51b815260206004820152601860248201527f4d69736d61746368656420696e707574206c656e677468730000000000000000604482015260640160405180910390fd5b60005b835181101561047557826001036102da5781818151811061029457610294610bc5565b602002602001015160008583815181106102b0576102b0610bc5565b60200260200101516040516102c59190610b6f565b9081526040519081900360200190205561039c565b8260020361033d578181815181106102f4576102f4610bc5565b6020026020010151600085838151811061031057610310610bc5565b60200260200101516040516103259190610b6f565b9081526040519081900360200190206001015561039c565b8260030361039c5781818151811061035757610357610bc5565b6020026020010151600085838151811061037357610373610bc5565b60200260200101516040516103889190610b6f565b908152604051908190036020019020600201555b6000805b60015481101561041d578583815181106103bc576103bc610bc5565b602002602001015180519060200120600182815481106103de576103de610bc5565b906000526020600020016040516103f59190610c4e565b60405180910390200361040b576001915061041d565b8061041581610c5a565b9150506103a0565b508061046257600185838151811061043757610437610bc5565b602090810291909101810151825460018101845560009384529190922001906104609082610cd0565b505b508061046d81610c5a565b915050610271565b507ff7f59931792b38a8e79d1e29988503b0a9dcdcd4475442a262fc64a3c1d3cfd38383836040516104a993929190610d90565b60405180910390a1505050565b60015460609081908190819060008167ffffffffffffffff8111156104dd576104dd6107a7565b60405190808252806020026020018201604052801561051057816020015b60608152602001906001900390816104fb5790505b50905060008267ffffffffffffffff81111561052e5761052e6107a7565b604051908082528060200260200182016040528015610557578160200160208202803683370190505b50905060008367ffffffffffffffff811115610575576105756107a7565b60405190808252806020026020018201604052801561059e578160200160208202803683370190505b50905060008467ffffffffffffffff8111156105bc576105bc6107a7565b6040519080825280602002602001820160405280156105e5578160200160208202803683370190505b50905060005b85811015610797576001818154811061060657610606610bc5565b90600052602060002001805461061b90610b8b565b80601f016020809104026020016040519081016040528092919081815260200182805461064790610b8b565b80156106945780601f1061066957610100808354040283529160200191610694565b820191906000526020600020905b81548152906001019060200180831161067757829003601f168201915b50505050508582815181106106ab576106ab610bc5565b6020026020010181905250600080600183815481106106cc576106cc610bc5565b906000526020600020016040516106e39190610c4e565b908152602001604051809103902060405180606001604052908160008201548152602001600182015481526020016002820154815250509050806000015185838151811061073357610733610bc5565b602002602001018181525050806020015184838151811061075657610756610bc5565b602002602001018181525050806040015183838151811061077957610779610bc5565b6020908102919091010152508061078f81610c5a565b9150506105eb565b5092989197509550909350915050565b634e487b7160e01b600052604160045260246000fd5b604051601f8201601f1916810167ffffffffffffffff811182821017156107e6576107e66107a7565b604052919050565b600082601f8301126107ff57600080fd5b813567ffffffffffffffff811115610819576108196107a7565b61082c601f8201601f19166020016107bd565b81815284602083860101111561084157600080fd5b816020850160208301376000918101602001919091529392505050565b60006020828403121561087057600080fd5b813567ffffffffffffffff81111561088757600080fd5b610893848285016107ee565b949350505050565b6000602082840312156108ad57600080fd5b5035919050565b60005b838110156108cf5781810151838201526020016108b7565b50506000910152565b600081518084526108f08160208601602086016108b4565b601f01601f19169290920160200192915050565b60208152600061091760208301846108d8565b9392505050565b600067ffffffffffffffff821115610938576109386107a7565b5060051b60200190565b600082601f83011261095357600080fd5b813560206109686109638361091e565b6107bd565b82815260059290921b8401810191818101908684111561098757600080fd5b8286015b848110156109a2578035835291830191830161098b565b509695505050505050565b6000806000606084860312156109c257600080fd5b833567ffffffffffffffff808211156109da57600080fd5b818601915086601f8301126109ee57600080fd5b813560206109fe6109638361091e565b82815260059290921b8401810191818101908a841115610a1d57600080fd5b8286015b84811015610a5557803586811115610a395760008081fd5b610a478d86838b01016107ee565b845250918301918301610a21565b509750508701359450506040860135915080821115610a7357600080fd5b50610a8086828701610942565b9150509250925092565b6000815180845260208085019450848260051b860182860160005b85811015610acf578383038952610abd8383516108d8565b98850198925090840190600101610aa5565b5090979650505050505050565b600081518084526020808501945080840160005b83811015610b0c57815187529582019590820190600101610af0565b509495945050505050565b608081526000610b2a6080830187610a8a565b8281036020840152610b3c8187610adc565b90508281036040840152610b508186610adc565b90508281036060840152610b648185610adc565b979650505050505050565b60008251610b818184602087016108b4565b9190910192915050565b600181811c90821680610b9f57607f821691505b602082108103610bbf57634e487b7160e01b600052602260045260246000fd5b50919050565b634e487b7160e01b600052603260045260246000fd5b60008154610be881610b8b565b60018281168015610c005760018114610c1557610c44565b60ff1984168752821515830287019450610c44565b8560005260208060002060005b85811015610c3b5781548a820152908401908201610c22565b50505082870194505b5050505092915050565b60006109178284610bdb565b600060018201610c7a57634e487b7160e01b600052601160045260246000fd5b5060010190565b601f821115610ccb57600081815260208120601f850160051c81016020861015610ca85750805b601f850160051c820191505b81811015610cc757828155600101610cb4565b5050505b505050565b815167ffffffffffffffff811115610cea57610cea6107a7565b610cfe81610cf88454610b8b565b84610c81565b602080601f831160018114610d335760008415610d1b5750858301515b600019600386901b1c1916600185901b178555610cc7565b600085815260208120601f198616915b82811015610d6257888601518255948401946001909101908401610d43565b5085821015610d805787850151600019600388901b60f8161c191681555b5050505050600190811b01905550565b606081526000610da36060830186610a8a565b8460208401528281036040840152610dbb8185610adc565b969550505050505056fea2646970667358221220c74a29a00d1fd0e2687ffc5874f3f235296421fbcd4df4d50d90448bc5b96e1564736f6c63430008110033",
  "linkReferences": {},
  "deployedLinkReferences": {}
}