{
  "_format": "hh-sol-artifact-1",
  "contractName": "VoteStorage",
  "sourceName": "contracts/DappVotes.sol",
  "abi": [
    {
      "anonymous": false,
      "inputs": [
        {
          "indexed": false,
          "internalType": "string",
          "name": "pollingManagerId",
          "type": "string"
        },
        {
          "indexed": false,
          "internalType": "string[]",
          "name": "candidateIds",
          "type": "string[]"
        },
        {
          "indexed": false,
          "internalType": "uint256",
          "name": "priority",
          "type": "uint256"
        },
        {
          "indexed": false,
          "internalType": "uint256[]",
          "name": "counts",
          "type": "uint256[]"
        }
      ],
      "name": "VotesStored",
      "type": "event"
    },
    {
      "inputs": [
        {
          "internalType": "string",
          "name": "",
          "type": "string"
        },
        {
          "internalType": "uint256",
          "name": "",
          "type": "uint256"
        }
      ],
      "name": "candidateList",
      "outputs": [
        {
          "internalType": "string",
          "name": "",
          "type": "string"
        }
      ],
      "stateMutability": "view",
      "type": "function"
    },
    {
      "inputs": [],
      "name": "getAllVoteCounts",
      "outputs": [
        {
          "internalType": "string[]",
          "name": "",
          "type": "string[]"
        },
        {
          "internalType": "string[]",
          "name": "",
          "type": "string[]"
        },
        {
          "internalType": "uint256[]",
          "name": "",
          "type": "uint256[]"
        },
        {
          "internalType": "uint256[]",
          "name": "",
          "type": "uint256[]"
        },
        {
          "internalType": "uint256[]",
          "name": "",
          "type": "uint256[]"
        }
      ],
      "stateMutability": "view",
      "type": "function"
    },
    {
      "inputs": [
        {
          "internalType": "string",
          "name": "pollingManagerId",
          "type": "string"
        },
        {
          "internalType": "string",
          "name": "candidateId",
          "type": "string"
        }
      ],
      "name": "getVoteCounts",
      "outputs": [
        {
          "internalType": "uint256",
          "name": "",
          "type": "uint256"
        },
        {
          "internalType": "uint256",
          "name": "",
          "type": "uint256"
        },
        {
          "internalType": "uint256",
          "name": "",
          "type": "uint256"
        }
      ],
      "stateMutability": "view",
      "type": "function"
    },
    {
      "inputs": [
        {
          "internalType": "uint256",
          "name": "",
          "type": "uint256"
        }
      ],
      "name": "pollingManagerIds",
      "outputs": [
        {
          "internalType": "string",
          "name": "",
          "type": "string"
        }
      ],
      "stateMutability": "view",
      "type": "function"
    },
    {
      "inputs": [
        {
          "internalType": "string",
          "name": "pollingManagerId",
          "type": "string"
        },
        {
          "internalType": "string[]",
          "name": "candidateIds",
          "type": "string[]"
        },
        {
          "internalType": "uint256",
          "name": "priority",
          "type": "uint256"
        },
        {
          "internalType": "uint256[]",
          "name": "counts",
          "type": "uint256[]"
        }
      ],
      "name": "storeMultipleVoteCounts",
      "outputs": [],
      "stateMutability": "nonpayable",
      "type": "function"
    },
    {
      "inputs": [
        {
          "internalType": "string",
          "name": "",
          "type": "string"
        },
        {
          "internalType": "string",
          "name": "",
          "type": "string"
        }
      ],
      "name": "voteCounts",
      "outputs": [
        {
          "internalType": "uint256",
          "name": "priority1",
          "type": "uint256"
        },
        {
          "internalType": "uint256",
          "name": "priority2",
          "type": "uint256"
        },
        {
          "internalType": "uint256",
          "name": "priority3",
          "type": "uint256"
        }
      ],
      "stateMutability": "view",
      "type": "function"
    }
  ],
  "bytecode": "0x608060405234801561001057600080fd5b506112fb806100206000396000f3fe608060405234801561001057600080fd5b50600436106100625760003560e01c80633dec433614610067578063494373261461007c578063b45ea1ad146100a5578063bdef1480146100b8578063cd59f237146100e6578063d573fda8146100ff575b600080fd5b61007a610075366004610d0f565b610156565b005b61008f61008a366004610e10565b61054c565b60405161009c9190610ea5565b60405180910390f35b61008f6100b3366004610ebf565b610614565b6100cb6100c6366004610ed8565b61063f565b6040805193845260208401929092529082015260600161009c565b6100ee6106b3565b60405161009c959493929190610fcc565b6100cb61010d366004610ed8565b8151602081840181018051600082529282019482019490942091909352815180830184018051928152908401929093019190912091528054600182015460029092015490919083565b80518351146101ab5760405162461bcd60e51b815260206004820152601860248201527f4d69736d61746368656420696e707574206c656e677468730000000000000000604482015260640160405180910390fd5b6000805b600254811015610213578580519060200120600282815481106101d4576101d4611039565b906000526020600020016040516101eb91906110fc565b6040518091039020036102015760019150610213565b8061020b8161111e565b9150506101af565b508061025757600280546001810182556000919091527f405787fa12a823e0f2b7631cc41b3ba8828b3321ca811111fa75cd3aa3bb5ace016102558682611186565b505b60005b845181101561050757836001036102df5782818151811061027d5761027d611039565b60200260200101516000876040516102959190611246565b90815260200160405180910390208683815181106102b5576102b5611039565b60200260200101516040516102ca9190611246565b908152604051908190036020019020556103d9565b8360020361035e578281815181106102f9576102f9611039565b60200260200101516000876040516103119190611246565b908152602001604051809103902086838151811061033157610331611039565b60200260200101516040516103469190611246565b908152604051908190036020019020600101556103d9565b836003036103d95782818151811061037857610378611039565b60200260200101516000876040516103909190611246565b90815260200160405180910390208683815181106103b0576103b0611039565b60200260200101516040516103c59190611246565b908152604051908190036020019020600201555b6000805b6001886040516103ed9190611246565b908152604051908190036020019020548110156104935786838151811061041657610416611039565b6020026020010151805190602001206001896040516104359190611246565b9081526020016040518091039020828154811061045457610454611039565b9060005260206000200160405161046b91906110fc565b6040518091039020036104815760019150610493565b8061048b8161111e565b9150506103dd565b50806104f4576001876040516104a99190611246565b90815260200160405180910390208683815181106104c9576104c9611039565b602090810291909101810151825460018101845560009384529190922001906104f29082611186565b505b50806104ff8161111e565b91505061025a565b507f92fe0a3365b9345f187506e514adae7c7eb2d4833638820f5ba62d46b28f87a08585858560405161053d9493929190611262565b60405180910390a15050505050565b8151602081840181018051600182529282019185019190912091905280548290811061057757600080fd5b906000526020600020016000915091505080546105939061104f565b80601f01602080910402602001604051908101604052809291908181526020018280546105bf9061104f565b801561060c5780601f106105e15761010080835404028352916020019161060c565b820191906000526020600020905b8154815290600101906020018083116105ef57829003601f168201915b505050505081565b6002818154811061062457600080fd5b9060005260206000200160009150905080546105939061104f565b6000806000806000866040516106559190611246565b9081526020016040518091039020856040516106719190611246565b90815260408051602092819003830181206060820183528054808352600182015494830185905260029091015491909201819052909891975095509350505050565b60608060608060606000805b600254811015610723576001600282815481106106de576106de611039565b906000526020600020016040516106f591906110fc565b9081526040519081900360200190205461070f90836112ac565b91508061071b8161111e565b9150506106bf565b5060008167ffffffffffffffff81111561073f5761073f610bc9565b60405190808252806020026020018201604052801561077257816020015b606081526020019060019003908161075d5790505b50905060008267ffffffffffffffff81111561079057610790610bc9565b6040519080825280602002602001820160405280156107c357816020015b60608152602001906001900390816107ae5790505b50905060008367ffffffffffffffff8111156107e1576107e1610bc9565b60405190808252806020026020018201604052801561080a578160200160208202803683370190505b50905060008467ffffffffffffffff81111561082857610828610bc9565b604051908082528060200260200182016040528015610851578160200160208202803683370190505b50905060008567ffffffffffffffff81111561086f5761086f610bc9565b604051908082528060200260200182016040528015610898578160200160208202803683370190505b5090506000805b600254811015610bb6576000600282815481106108be576108be611039565b9060005260206000200180546108d39061104f565b80601f01602080910402602001604051908101604052809291908181526020018280546108ff9061104f565b801561094c5780601f106109215761010080835404028352916020019161094c565b820191906000526020600020905b81548152906001019060200180831161092f57829003601f168201915b5050505050905060005b6001826040516109669190611246565b90815260405190819003602001902054811015610ba1578189858151811061099057610990611039565b60200260200101819052506001826040516109ab9190611246565b908152602001604051809103902081815481106109ca576109ca611039565b9060005260206000200180546109df9061104f565b80601f0160208091040260200160405190810160405280929190818152602001828054610a0b9061104f565b8015610a585780601f10610a2d57610100808354040283529160200191610a58565b820191906000526020600020905b815481529060010190602001808311610a3b57829003601f168201915b5050505050888581518110610a6f57610a6f611039565b602002602001018190525060008083604051610a8b9190611246565b9081526020016040518091039020600184604051610aa99190611246565b90815260200160405180910390208381548110610ac857610ac8611039565b90600052602060002001604051610adf91906110fc565b9081526020016040518091039020604051806060016040529081600082015481526020016001820154815260200160028201548152505090508060000151888681518110610b2f57610b2f611039565b6020026020010181815250508060200151878681518110610b5257610b52611039565b6020026020010181815250508060400151868681518110610b7557610b75611039565b602090810291909101015284610b8a8161111e565b955050508080610b999061111e565b915050610956565b50508080610bae9061111e565b91505061089f565b50949b939a509198509650945092505050565b634e487b7160e01b600052604160045260246000fd5b604051601f8201601f1916810167ffffffffffffffff81118282101715610c0857610c08610bc9565b604052919050565b600082601f830112610c2157600080fd5b813567ffffffffffffffff811115610c3b57610c3b610bc9565b610c4e601f8201601f1916602001610bdf565b818152846020838601011115610c6357600080fd5b816020850160208301376000918101602001919091529392505050565b600067ffffffffffffffff821115610c9a57610c9a610bc9565b5060051b60200190565b600082601f830112610cb557600080fd5b81356020610cca610cc583610c80565b610bdf565b82815260059290921b84018101918181019086841115610ce957600080fd5b8286015b84811015610d045780358352918301918301610ced565b509695505050505050565b60008060008060808587031215610d2557600080fd5b843567ffffffffffffffff80821115610d3d57600080fd5b610d4988838901610c10565b9550602091508187013581811115610d6057600080fd5b8701601f81018913610d7157600080fd5b8035610d7f610cc582610c80565b81815260059190911b8201840190848101908b831115610d9e57600080fd5b8584015b83811015610dd657803586811115610dba5760008081fd5b610dc88e8983890101610c10565b845250918601918601610da2565b509750505050604087013593506060870135915080821115610df757600080fd5b50610e0487828801610ca4565b91505092959194509250565b60008060408385031215610e2357600080fd5b823567ffffffffffffffff811115610e3a57600080fd5b610e4685828601610c10565b95602094909401359450505050565b60005b83811015610e70578181015183820152602001610e58565b50506000910152565b60008151808452610e91816020860160208601610e55565b601f01601f19169290920160200192915050565b602081526000610eb86020830184610e79565b9392505050565b600060208284031215610ed157600080fd5b5035919050565b60008060408385031215610eeb57600080fd5b823567ffffffffffffffff80821115610f0357600080fd5b610f0f86838701610c10565b93506020850135915080821115610f2557600080fd5b50610f3285828601610c10565b9150509250929050565b600081518084526020808501808196508360051b8101915082860160005b85811015610f84578284038952610f72848351610e79565b98850198935090840190600101610f5a565b5091979650505050505050565b600081518084526020808501945080840160005b83811015610fc157815187529582019590820190600101610fa5565b509495945050505050565b60a081526000610fdf60a0830188610f3c565b8281036020840152610ff18188610f3c565b905082810360408401526110058187610f91565b905082810360608401526110198186610f91565b9050828103608084015261102d8185610f91565b98975050505050505050565b634e487b7160e01b600052603260045260246000fd5b600181811c9082168061106357607f821691505b60208210810361108357634e487b7160e01b600052602260045260246000fd5b50919050565b600081546110968161104f565b600182811680156110ae57600181146110c3576110f2565b60ff19841687528215158302870194506110f2565b8560005260208060002060005b858110156110e95781548a8201529084019082016110d0565b50505082870194505b5050505092915050565b6000610eb88284611089565b634e487b7160e01b600052601160045260246000fd5b60006001820161113057611130611108565b5060010190565b601f82111561118157600081815260208120601f850160051c8101602086101561115e5750805b601f850160051c820191505b8181101561117d5782815560010161116a565b5050505b505050565b815167ffffffffffffffff8111156111a0576111a0610bc9565b6111b4816111ae845461104f565b84611137565b602080601f8311600181146111e957600084156111d15750858301515b600019600386901b1c1916600185901b17855561117d565b600085815260208120601f198616915b82811015611218578886015182559484019460019091019084016111f9565b50858210156112365787850151600019600388901b60f8161c191681555b5050505050600190811b01905550565b60008251611258818460208701610e55565b9190910192915050565b6080815260006112756080830187610e79565b82810360208401526112878187610f3c565b905084604084015282810360608401526112a18185610f91565b979650505050505050565b808201808211156112bf576112bf611108565b9291505056fea2646970667358221220eba04093b0127fdf6c33d71aa06e9eadc7365313e768e1b424a3556809ace6e964736f6c63430008110033",
  "linkReferences": {},
  "deployedLinkReferences": {}
}